:10000E0000040004000400040004000400040004C2
:10001E0000040004000400040004000400040004B2
:10002E00000211021102160116030D020F02110138
:10003E001101110411040004000400021102110246
:10004E001601160314011405120111070004000411
:10005E0000021102110216040D020D020F01110110
:10006E0011041104000400040002110211020D0219
:10007E001202120211020D010D010D040D040002F7
:10008E00140216021802190218011902140116019F
:10009E0016011604140212021102110211021201AB
:1000AE000F031402160218020002110211021601A9
:1000BE0016030D020F0211011101110411040004A7
:1000CE000004000211021102160116031401140598
:1000DE00120111070004000400021102110216049D
:1000EE000D020D020F011101110411040004000490
:1000FE000002110211020D021202120211020D0172
:10010E000D010D040D04000214021602180219024C
:10011E001801190214011601160116041402120216
:10012E0011021102110212010F031402160218021B
:01013E00FFC1
:1001CB00204A0A0000F88CF8F3F95BF9B8FA15FA33
:1001DB0067FAB9FB04FB4BFB90FBCFFC10FC44FC18
:1001EB0079FCACFCDCFD09FD34FD5CFD82FDA6FD5C
:1001FB00C8FDE8FE06FE22FE3DFE56FE6EFE85FEA7
:0D020B009AFEAEFEC1FED3FEE4FEF4FF033A
:10025C0012028DE50890000E93FFF460208F0905C3
:10026C0008E5089375F07DA4FFAEF01202A4050812
:10027C00C28C7F057E001202A4D28C80D6C28C80E8
:01028C00FE73
:03000B00020219D5
:10021900C0E0C0D075D000C000C004C005C006C091
:1002290007E50925E0240AF8E6FE08E64E6015E52B
:100239000925E0240AF8E6FC08E6FDECF58CAF0593
:100249008F8AB2A5D007D006D005D004D000D0D06F
:03025900D0E032C0
:1002A400EF4E600F7D027CEFDCFEDDFCEF1F70F093
:0302B4001E80EDBC
:0102B7002224
:10028D005389F0438901758A18758CFCC28DD28C07
:07029D00D2A9D2AFC2B922C1
:0300000002013FBB
:0C013F00787FE4F6D8FD7581530201863C
:10014B0002025CE493A3F8E493A34003F68001F26C
:10015B0008DFF48029E493A3F85407240CC8C333B5
:10016B00C4540F4420C8834004F456800146F6DF84
:10017B00E4800B01020408102040809001CBE47E48
:10018B00019360BCA3FF543F30E509541FFEE49379
:10019B00A360010ECF54C025E060A840B8E493A340
:1001AB00FAE493A3F8E493A3C8C582C8CAC583CA6B
:1001BB00F0A3C8C582C8CAC583CADFE9DEE780BE23
:0102180000E5
:00000001FF
