:10000E001203AB1204148F28E528B4010CE52770F7
:10001E00047F0180027F008F27E528B40207E4F5F4
:10002E0025F524F526E52864037033E525FD7C00CF
:10003E00E4FF1203317F057E001203D8E524FD7C18
:10004E00007F011203317F057E001203D8E526FDE5
:10005E007C007F021203317F057E001203D8E52853
:10006E00B40415E4FF1202AF8F257F011202AF8F89
:10007E00247F021202AF8F26E52575F00A84FD7CDF
:10008E00007F01120402E52575F00A84E5F0FD7C7F
:10009E00007F021204027D0B7C007F03120402E536
:1000AE002475F00A84FD7C007F04120402E5247599
:1000BE00F00A84E5F0FD7C007F051204027D0B7CC6
:1000CE00007F06120402E52675F00A84FD7C007F8F
:1000DE0007120402E52675F00A84E5F0FD7C007F28
:0700EE0008120402020011D8
:10030A00E52760220526E526C394644019E4F5260C
:10031A000524E524943C400EE4F5240525E52594BE
:07032A003C4003E4F525222D
:03000B000200F5FB
:1000F500C0E0C0F0C083C082C0D075D000C000C0D1
:0D01050001C002C003C004C005C006C00751
:10011200758A18758CFC051FE51F7002051EC394B5
:1001220014E51E94004009751E00751F0012027628
:100132000521E52170020520C39402E520940040C8
:10014200097520007521001203900523E523700232
:100152000522C3940AE52294004009752200752302
:040162000012030A7A
:10016600D007D006D005D004D003D002D001D000ED
:0B017600D0D0D082D083D0F0D0E03297
:1003AB005389F0438901758A18758CFCC28DD28CE8
:0703BB00D2A9D2AFC2B922A2
:1003D800EF4E600F7D027CEFDCFEDDFCEF1F70F05E
:0303E8001E80ED87
:0103EB0022EF
:05041400E4AF2BF52B05
:0104190022C0
:1003C200E4FF20B1010F20B0027F0220B2027F03BE
:0503D20020B3027F04CE
:0103D7002203
:1002760085292A1203C28F29E52AB40107E52970C8
:1002860003752B01E52AB40207E5297003752B02D5
:10029600E52AB40307E5297003752B03E52AB404A0
:0802A60007E5297003752B0424
:0102AE00222D
:100373000909000A0A0A0A0A0A0A0A0C123F065B5A
:0C0383004F666D7D077F6F004001080190
:09040200AE0574092FF8A60622CC
:10020D00E4F580EE705BEF14B408005054900228B2
:10021D0075F003A4C58325F0C58373020240020265
:10022D004402024802024C020250020258020260CD
:10023D00020268D2A4800ED2A48012D2A48016D25B
:10024D00A4801AC2A4D2A3D2A28016C2A4D2A3C2E1
:10025D00A2800EC2A4C2A3D2A28006C2A4C2A3C20F
:09026D00A274122DF8E6F58022BE
:10039000AF087E0074092508F8E6FD12020D050875
:0A03A000E508C39409400375080145
:0103AA002230
:100331008F2C8C2D8D2E12040B7FA01202E1120343
:10034100ECAF2C1202E11203ECAF2E1202E1120308
:04035100EC020003B7
:0202AF008F2C92
:1002B10012040B7FA01202E11203ECAF2C1202E137
:1002C1001203EC12040B7FA11202E11203EC1203E0
:0F02D100558F2D7F011203F8120003AF2D7E0011
:0102E00022FB
:09040B00D2A0D2A1C2A0C2A1221C
:07000300C2A0D2A1D2A0228D
:0202E100AD0767
:1002E300E4FB74807E00A803088006CEA2E713CE49
:1002F30013D8F8FFEDF582EF558224FF92A0D2A127
:06030300C2A10BBB08DCE7
:0103090022D1
:10035500E4FFD2A0FED2A130A00D7480A8060880CB
:0D03650002C313D8FC4207C2A10EBE08E877
:010372002268
:0A03F800EF24FF92A0D2A1C2A122BF
:0B03EC00D2A0D2A1A2A0E433FFC2A166
:0103F70022E3
:0300000002018179
:0C018100787FE4F6D8FD75812E0201C8DD
:10018D0002000EE493A3F8E493A34003F68001F27A
:10019D0008DFF48029E493A3F85407240CC8C33373
:1001AD00C4540F4420C8834004F456800146F6DF42
:1001BD00E4800B0102040810204080900373E47E5C
:1001CD00019360BCA3FF543F30E509541FFEE49337
:1001DD00A360010ECF54C025E060A840B8E493A3FE
:1001ED00FAE493A3F8E493A3C8C582C8CAC583CA29
:1001FD00F0A3C8C582C8CAC583CADFE9DEE780BEE1
:01038F00006D
:00000001FF
