:020000040800F2
:10000000D8060020D5010008DD010008DF01000846
:10001000E1010008E3010008E5010008000000001C
:10002000000000000000000000000000E7010008E0
:10003000E901000800000000EB010008ED010008E4
:10004000EF010008EF010008EF010008EF010008D0
:10005000EF010008EF01000805050008EF010008A6
:10006000EF010008EF010008EF010008EF010008B0
:10007000EF010008EF010008EF010008EF010008A0
:10008000EF010008EF010008EF010008EF01000890
:10009000EF010008EF010008EF010008EF01000880
:1000A000EF010008EF010008EF010008EF01000870
:1000B000EF010008EF010008EF010008EF01000860
:1000C000EF010008EF010008EF010008EF01000850
:1000D000EF010008810B0008EF010008EF010008A4
:1000E000EF010008EF010008EF010008EF01000830
:1000F000EF010008EF010008EF010008EF01000820
:10010000EF010008EF010008EF010008EF0100080F
:10011000EF010008EF010008EF010008EF010008FF
:10012000EF010008EF010008EF010008EF010008EF
:1001300000F002F800F03FF80AA090E8000C8244BA
:100140008344AAF10107DA4501D100F034F8AFF297
:10015000090EBAE80F0013F0010F18BFFB1A43F0A5
:1001600001031847E40C0000040D0000103A24BFFE
:1001700078C878C1FAD8520724BF30C830C144BF0C
:1001800004680C607047000000230024002500264E
:10019000103A28BF78C1FBD8520728BF30C148BFEA
:1001A0000B607047642900F07780002070471FB50E
:1001B0001FBD10B510BD00F037F91146FFF7F7FF6E
:1001C00000F084FD00F055F903B4FFF7F2FF03BC23
:1001D00000F05AFD0948804709480047FEE7FEE75E
:1001E000FEE7FEE7FEE7FEE7FEE7FEE7FEE7FEE7E7
:1001F00004480549054A064B70470000890A000873
:1002000031010008D8000020D8060020D8020020C4
:10021000D8020020704700000FB4044910B503AAAB
:10022000029800F0D3F810BC5DF814FB0800002021
:100230002DE9F0410E460446002020622046E16888
:10024000884730B3252805D0D4E901219047206A9A
:10025000401CF2E7E168204600278847050018D0D7
:10026000A5F14100192802D820354FF40067324625
:10027000294620462760FFF795FF40B1012804D0AA
:10028000F61D26F007060836D8E7361DD6E72846BD
:10029000DAE7206ABDE8F0812DE9F0410646002446
:1002A00010687529314616A510D0AFF300800028DC
:1002B00002DA404213A507E031688A0701D512A58A
:1002C00002E0490704D511A5012401E0AFF3008045
:1002D00000210A2206F1240709E0B0FBF2FCB0FB82
:1002E000F2F302FB1C00303078541846491C0028F9
:1002F000F3D123462A463046BDE8F04100F00CB861
:10030000000000002D0000002B0000002000000075
:1003100070477047704770472DE9F0470D46994682
:100320009246044600F124080168880604D5E06975
:1003300021F01001216000E00120A84201DD471BEF
:1003400000E00027A1697A1902EB0900081AA061F0
:100350002078C00602D42046AFF30080002608E0D3
:10036000D4E901211AF806009047206A401C761C47
:1003700020624E45F4DB2078C0060AD52046AFF354
:10038000008006E0D4E9012130209047206A401C1B
:100390002062381EA7F10107F4DC07E0D4E901214F
:1003A00018F805009047206A401C2062281EA5F11D
:1003B0000105F3DC2046AFF300802078000602D56B
:1003C0000220BDE8F0870120FBE70000074B70B575
:1003D0000D467B4400F011F80446284600F020F852
:1003E00010B14FF0FF3070BD204670BDDB0800003B
:1003F00001694A1C02610878704700B58FB0CDE9E9
:1004000001310021059105497944CDE903101146D8
:100410006846FFF70DFF0FB000BD0000E5FFFFFFCE
:10042000007B00F080007047754600F02BF8AE4668
:1004300005006946534620F00700854618B020B5F0
:10044000FFF7D6FEBDE820404FF000064FF0000752
:100450004FF000084FF0000B21F00701AC46ACE86C
:10046000C009ACE8C009ACE8C009ACE8C0098D46D9
:10047000704710B50446AFF300802046BDE8104039
:10048000FFF7A2BE00487047740000204721124ABF
:100490001180121D108000210F4A121F11800E4979
:1004A0002839098841F001010B4A283A118000BF20
:1004B00009491839098801F001010029F8D00649D5
:1004C0002839098821F00101034A283A11800021C6
:1004D000014A183A11807047281400400848C06942
:1004E00040F020000649C8610846006940F020003D
:1004F00008610846006920F020000861704700008C
:100500000010024010B5002000F0CEF8042807D1FA
:100510000448006808B9012000E000200149086093
:1005200010BD00009C81234230B5002300F04EF83E
:10053000024640F64850824203D341F222508242A2
:1005400001D9012030BD00F05DF8024640F6AC5004
:10055000824203D341F27C50824201D90120F1E76B
:1005600000242DE0002525E000F030F80246B2F529
:10057000A07F02D3B2F5027F01D90120E2E700F0AB
:1005800041F8024640F2DC50824206D9B2F5E16FF2
:1005900003D25B1043F080030AE040F2292082423C
:1005A00004D9B2F53C7F01D85B1001E00120C9E716
:1005B000681CC5B2082DD7DB03480355601CC4B2C4
:1005C000062CCFDB0020BDE70100002000200B49F6
:1005D00088840846008840F00100088000BF084871
:1005E00000680028FBD00548008820F0010003497E
:1005F0000880002008820846808C70470010004068
:100600002481214200200B4988840846008840F05C
:100610000100088000BF084800680028FBD1054899
:10062000008820F001000349088000200882084665
:10063000808C704700100040248121421548806959
:1006400040F04000134988610846806940F004008A
:10065000886111480068114908400F490860084640
:1006600000680F4908430C4908600B480C300068CB
:1006700040F01C0008490C3108600A48006820F06E
:100680000F00084908600846006840F0080008604C
:10069000704700000010024000180140FF00F0FF0A
:1006A000008808000008014010B5044614B101207C
:1006B0002A49087029480078002835D02848006861
:1006C000C0F3001070B126480068C0F3C00048B104
:1006D00023480068C0F3800020B12248006800F081
:1006E000010008B3052000F0D2FA00201B49087071
:1006F0001B480068C0F3001008B9012010BD18485D
:100700000068C0F3C00008B90220F7E71448006889
:10071000C0F3800008B90320F0E71248006800F039
:100720000100C0B10420E9E70D480068C0F30010E3
:1007300088B10B480068C0F3C00060B10848006889
:10074000C0F3800038B10748006800F0010010B91C
:100750000120024908700020D0E7000000000020BE
:1007600008180140080801402F48806940F008003F
:100770002D4988610846806940F004008861084678
:10078000806940F0800088612848006820F470008B
:10079000264908600846006840F440100860234875
:1007A0000C30006840F0200020490C3108602048DF
:1007B000006820F0F0001E4908600846006840F01C
:1007C000300008601A480C30006840F002001849F8
:1007D0000C3108601648001D006820F00F00144915
:1007E000091D08600846006840F0030008601048D2
:1007F0000C30006840F480700D490C3108600D48E1
:10080000006820F070400B4908600846006840F01E
:100810004050086007480C30006840F080000549EF
:100820000C3108607047000000100240000C0140CD
:1008300000080140001C01402DE9F041054600245C
:100840001CE02E5D002715E040F2A911012000F008
:1008500019F806F0010028B140F2DE61002000F036
:1008600011F804E040F28D21002000F00BF8761022
:10087000781CC7B2082FE7DB601CC4B2062CE0DB93
:10088000BDE8F08170B506460C46012E13D1002557
:100890000BE00C48006808B9012000E0002009497D
:1008A00008600B20FFF7F2FD6D1C0D20B4FBF0F08B
:1008B000A842EED805E00020024908602046FFF774
:1008C000E5FD70BD9801234210B500F001F810BDA0
:1008D0000CB50020019000903348006840F480304F
:1008E0003149086000BF3048006800F400300090D3
:1008F0000198401C0190009818B90198B0F5A06FBC
:10090000F1D12948006800F4003010B101200090B6
:1009100001E0002000900098012843D1234800689E
:1009200040F01000214908600846006820F00300EC
:1009300008600846006840F0020008601A484068F5
:10094000194948600846406848600846406840F4D5
:10095000806048600846406820F47C104860084683
:10096000406840F4E81048600846006840F0807035
:10097000086000BF0C48006800F000700028F9D043
:100980000948406820F0030007494860084640686D
:1009900040F00200486000BF0348406800F00C00CF
:1009A0000828F9D10CBD00000010024000200240D0
:1009B0002DE9F0470C4615464FF4A06202F00706F9
:1009C0002E4F39684FF6FF0739402D4F0F4347EA46
:1009D00006212A4F396000BF26462F4602F0070144
:1009E000C1F10709B9F1040F02D94FF0040901E080
:1009F000C1F10709C84601F10409B9F1070F02D294
:100A00004FF0000901E0A1F10309CC464FF00109C4
:100A100009FA08F9A9F1010909EA060909FA0CF924
:100A20004FF0010A0AFA0CFAAAF1010A0AEA070AC7
:100A300049EA0A0300BF02461946002A0ADA0E07ED
:100A40004FEA166C0D4E0C3602F00F073F1F06F8EA
:100A500007C003E00E07370E0A4EB75400BF00BFB1
:100A600000F01F02012191404209920002F1E022B0
:100A7000C2F8001100BFBDE8F08700000CED00E0F7
:100A80000000FA0500E400E010B51348006840F0EB
:100A900001001149086008464068104908400E49A5
:100AA0004860084600680E4908400B49086008463F
:100AB000006820F4802008600846406820F4FE00AA
:100AC00048604FF41F008860FFF7FEFE4FF00060A3
:100AD0000449086010BD0000001002400000FFF84B
:100AE000FFFFF6FE08ED00E0214A926942F008029D
:100AF0001F4B9A611F4A126822F0F0021D4B1A60C8
:100B00001A46126842F080021A601A4A08321268C5
:100B100042F40072174B08331A60154A926942F08A
:100B20004002134B9A61144A126822F07062124B11
:100B30001A601A46126842F040721A600C4AD26972
:100B400042F010020A4BDA611A46126942F01002B2
:100B50001A611A46126922F010021A61421E074BEE
:100B60001A8599851A46128822F001021A80704768
:100B700000100240040C0140001801400010004029
:100B800010B500BF1349098801F0200161B1114976
:100B9000091D0988CAB210490B780978491C0E4C06
:100BA00021700E49CA5413E00A49098801F0100166
:100BB00071B108490988C8B20649091D0988C8B237
:100BC0000021064A044B1B78D1540121044A1170BC
:100BD00010BD0000003801400C0000201000002073
:100BE0000D00002010B504462348806940F0040041
:100BF000214988610846806940F4804088611F4827
:100C0000006820F47F601D4908600846006840F4D1
:100C10000B6008601848C06840F480401649C860FE
:100C20000846C06820F48040C8601548008840F03D
:100C30002000134908800846008840F01000088012
:100C4000012211462520FFF7B3FE0E48B0FBF4F059
:100C50000B49091F0880081D008840F00800091D85
:100C600008800846008840F0040008800846008894
:100C700040F40050088010BD0010024004080140FC
:100C80000C38014000A24A04014600BF704710B56D
:100C900000210AE0002205E0002300E05B1C642B39
:100CA000FCD3521C642AF7D3491C8142F2D310BDF5
:100CB00000BF054A128802F08002002AF9D0C2B2B1
:100CC000014B1B1D1A807047003801401FB5FFF70C
:100CD000B5FCFFF749FDFFF701FC4FF4E130FFF7EA
:100CE00081FF4FF6FF714820FFF7FEFE8FE00020E6
:100CF000FFF7DAFC0446022C38D145A103C9CDE93F
:100D0000020143A103C9CDE9000141F2E301012041
:100D1000FFF7B8FD41F2A8110020FFF7B3FD02A8CC
:100D2000FFF78AFD40F2A9110120FFF7ABFD00207B
:100D30003949086041F2D840FFF7A8FB41F2E301CE
:100D40000120FFF79FFD41F2A8110020FFF79AFD57
:100D50006846FFF771FD4FF40C710120FFF792FD1B
:100D60004FF40C710020FFF78DFD00BF042C38D12B
:100D70002AA103C9CDE9020128A103C9CDE90001D7
:100D800041F2E3010120FFF77DFD41F2A8110020AF
:100D9000FFF778FD02A8FFF74FFD40F2A9110120EF
:100DA000FFF770FD00201C49086041F2D840FFF7B2
:100DB0006DFB41F2E3010120FFF764FD41F2A81150
:100DC0000020FFF75FFD6846FFF736FD4FF40C711A
:100DD0000120FFF757FD4FF40C710020FFF752FD83
:100DE00000BF1048006890B9FFF79EFB78B90E4825
:100DF00040790D4909790C4AD278CDE90021029059
:100E0000094883784278017808A0FFF705FA6EE771
:100E10004DB2F8071BE40000980123424DB2DE21D9
:100E200007F80000248121420100002020256420D1
:100E3000202564202025642020256420202564208E
:100E40002025640D0A000000680E00080000002044
:100E5000100000006C010008780E0008100000204F
:100E6000C80600008801000801010101010100001D
:080E700000000000000000007A
:0400000508000131BD
:00000001FF
