:0602A20048656C6C6F0062
:100097001202587B417D017F011202417BFF7A02E8
:1000A70079A27D037F011201E3750C00750D027BB8
:1000B700427A007D097F01120224750C00750D023A
:1000C7007BA87AFF7D0C7F0112013E750C027BA590
:1000D7007A007D017F02120102750C087BA57A0068
:1000E7007D047F021201787BDF7D0D7F02120241C2
:0B00F7007B437D0E7F0212024180FE61
:06027D00C2A58F80D2A78C
:080283007F027EEFDEFEDFFCCE
:01028B002250
:0A029800C2A612027DC2A702028373
:10020600CFCDCFCECCCE1200427C007D0A1200426A
:04021600ED2430FFA4
:0A021A00D2A612027DC2A7020283E1
:10026C00BF01041DED8003ED243F4480FF12029872
:01027C00225F
:100258007F381202987F0C1202987F061202987F4C
:0402680001020298F5
:10024100AC03BF01041DED8003ED243F4480FF1288
:070251000298AF0402021A3B
:0601E3008B088A09890A5D
:1001E90012026CE4FDAB08AA09A90A8D8275830085
:0C01F900120003FF600612021A0D80E9DC
:0102050022D6
:0C01B0007F0AEA24FFFDE434FFFC7E001F
:0801BC008E108F118C128D13BF
:1001C4007F017E00E4FBEBC39513E5126480F874B1
:0E01D4008098500AAC10AD111200300B80E87C
:0101E20022FA
:040224008A0A8B0BAC
:1002280012026CAA0DEAD39400400D1201B0AC0A78
:08023800AD0B1202061A80ED65
:01024000229B
:10013E0012026CC3EA64809480400B7F2B12021A69
:10014E008A0E8B0F800E7F2D12021AC3E49BF50FC1
:10015E00E49AF50EAA0DEAD39400400D1201B0AC4C
:09016E000EAD0F1202061A80ED1D
:010177002265
:040102008B828A83DF
:1001060012026CAA0CEAD39400402C7F101201B2A2
:10011600AD07AC06AF82AE83120042EF540FFD7CF2
:1001260000C3940AEC9400ED500424308002243776
:07013600FF12021A1A80CE2D
:01013D00229F
:040178008A0A8B0B59
:10017C0012026CAA0CEAD394004028EA24FFFDE496
:10018C0034FFFC7F027E001201BCAC0AAD0BCFCD5C
:10019C00CFCECCCE120042EF54012430FF12021A03
:0301AC001A80D2E4
:0101AF00222D
:0300000002028C6D
:0C028C00787FE4F6D8FD7581130200971E
:10000300BB010CE58229F582E5833AF583E02250B2
:1000130006E92582F8E622BBFE06E92582F8E222FC
:0D002300E58229F582E5833AF583E4932216
:10003000EF8DF0A4A8F0CF8CF0A428CE8DF0A42EE4
:02004000FE229E
:10004200BC000BBE0029EF8DF084FFADF022E4CCA2
:10005200F875F008EF2FFFEE33FEEC33FCEE9DEC6B
:10006200984005FCEE9DFE0FD5F0E9E4CEFD22EDB1
:10007200F8F5F0EE8420D21CFEADF075F008EF2FFB
:10008200FFED33FD4007985006D5F0F222C398FDEC
:050092000FD5F0EA2289
:00000001FF
