:100100002030080000000000000000FF180818FF61
:100110000000FF91910000FF010100FF0101007E3E
:10012000818181817E000000F90000000000000054
:03013000000000CC
:10008F00E4F539F53A12016CE4F538E538253924F1
:10009F0008F8E6FDAF381201340538E538C3940887
:1000AF0040E9053AE53AD3940A40DDE4F53A0539DB
:0C00BF00E539D3942840D1E4F53980CC19
:10015800EF4E600F7D027CEFDCFEDDFCEF1F70F0E0
:030168001E80ED09
:01016B002271
:0200CB00A90783
:1000CD00E4FBFAAF0374807E00A807088006CEA279
:1000DD00E713CE13D8F8FFE9FDEF5D24FF92B4D2FC
:1000ED00B6C2B60BBB00010AEB64084A70D5D2B597
:0200FD00C2B58A
:0100FF0022DE
:05016C00C2B6C2B5227D
:10013400AE05AC07AF061200CBAF047480A8070865
:100144008002C313D8FCF4F5807F017E00120158AD
:040154007580FF2291
:03000000020003F8
:0C000300787FE4F6D8FD75813A02004ACF
:10000F0002008FE493A3F8E493A34003F68001F278
:10001F0008DFF48029E493A3F85407240CC8C333F2
:10002F00C4540F4420C8834004F456800146F6DFC1
:10003F00E4800B0102040810204080900100E47E50
:10004F00019360BCA3FF543F30E509541FFEE493B6
:10005F00A360010ECF54C025E060A840B8E493A37D
:10006F00FAE493A3F8E493A3C8C582C8CAC583CAA8
:10007F00F0A3C8C582C8CAC583CADFE9DEE780BE60
:0101330000CB
:00000001FF
