:02004100A9070D
:10004300E4FBFAAF0374807E00A807088006CEA203
:10005300E713CE13D8F8FFE9FDEF5D24FF92B4D286
:10006300B6C2B60BBB00010AEB64084A70D5D2B521
:02007300C2B514
:010075002268
:10007600AE05AC07AF06120041AF047480A80708AE
:100086008002C313D8FCF4F5807F017E0012009A2B
:040096007580FF2250
:10000300C2B6C2B57D80E4FF1200767D407F011247
:1000130000767D207F021200767D107F031200762A
:100023007D087F041200767D047F051200767D0231
:0E0033007F061200767D017F0712007680C6E0
:10009A00EF4E600F7D027CEFDCFEDDFCEF1F70F09F
:0300AA001E80EDC8
:0100AD002230
:030000000200AE4D
:0C00AE00787FE4F6D8FD7581070200039E
:00000001FF
