:02042F0041008A
:1001E8001203917BFF7A04792F7D017F01120309A5
:1001F8001204231203C4EF60FA1204298F28120490
:100208002C8F27E528FB7A007518027D017F0212E2
:100218000265E527FB7A007518027D057F02120248
:030228006580D01E
:10037D00EF4E600F7D027CEFDCFEDDFCEF1F70F0B9
:03038D001E80EDE2
:01039000224A
:0603B500C2A58F80D2A753
:0803BB007F027EEFDEFEDFFC95
:0103C3002217
:0A040000C2A61203B5C2A70203BB97
:10032C00CFCDCFCECCCE1201937C007D0A1201939F
:04033C00ED2430FF7D
:0A034000D2A61203B5C2A70203BB48
:10036700AE07BE0104ED148006BE0209ED243F442A
:0603770080FF12040022C9
:100391007F381204007F0C1204007F061204007FD4
:0403A1000102040051
:0A040A00AC03120367AF04020340C5
:060309008B148A15891611
:10030F00120367E4FDAB14AA15A9168D827583003D
:0C031F00120154FF60061203400D80E93B
:01032B0022AF
:0C02D6007F0AEA24FFFDE434FFFC7E00F8
:0802E2008E198F1A8C1B8D1C74
:1002EA007F017E00E4FBEBC3951CE51B6480F87478
:0E02FA008098500AAC19AD1A1201810B80E8F1
:0103080022D2
:04034A008A2B8B2C43
:10034E00120367AA2DEAD39400400D1202D6AC2BED
:08035E00AD2C12032C1A80EDF6
:010366002274
:10022B00120367C3EA64809480400B7F2B12034058
:10023B008A228B23800E7F2D120340C3E49BF52370
:10024B00E49AF522AA21EAD39400400D1202D6AC0F
:09025B0022AD2312032C1A80EDE0
:010264002277
:040265008A168B1753
:10026900120367AA18EAD3940040297F101202D812
:10027900AC16AD17CFCDCFCECCCE120193EF540F24
:10028900FEC3940AEE5004243080022437FF12037F
:04029900401A80D1B6
:01029D00223E
:04029E008A308B31E6
:1002A200120367AA32EAD394004028EA24FFFDE44D
:1002B20034FFFC7F027E001202E2AC30AD31CFCDC2
:1002C200CFCECCCE120193EF54012430FF12034063
:0302D2001A80D2BD
:0102D5002206
:0B03EA00D288D2A8D2AFD2B8D2B22283
:1003A5005389F0438901E4F58AF58CC28DC28C220C
:0B03F500AD07AC068C8CAF058F8A2290
:09041400AF8CEFFEAD8AEDFF2272
:06041D00EF24FF928C2287
:060423001203A50203EA2A
:0D03C400E50F6006E4F50F7F01227F0022A7
:0D03D100E50D6006E4F50D7F01227F00229E
:03042900AF0C22F3
:03042C00AF0B22F1
:03000300020006F2
:10000600C0E0C0F0C083C082C0D075D000C000C0C0
:1000160001C002C003C004C005C006C007E50870E1
:100026000F30B20CFFFE1203F57F0112041D80494A
:10003600E508640170491204148E098F0AE4FFFE74
:100046001203F5D3E50A94C8E50994324010E50A8F
:1000560094B0E50994365006750802020139D3E5D5
:100066000A94FEE50994294010E50A94E6E5099408
:100076002D5006750D01020131750801020139E5A1
:1000860008640260030201391204148E098F0AE41F
:10009600FFFE1203F5D3E50A946CE5099402402AA3
:1000A600E50A9454E50994065020E50E13131354FB
:1000B6001F2410F8C000E6FFE50E5407FE7401A8E1
:1000C60006088002C333D8FC8033D3E50A94D6E50C
:1000D6000994064031E50A94BEE509940A5027E5DD
:1000E6000E131313541F2410F8C000E6FFE50E5438
:1000F60007FE7401A806088002C333D8FCF45FD05B
:1001060000F6050E8006750E00750801E50EC3940F
:10011600204020750E00E511F4B5100FE513F4B577
:10012600120985100C85120B750F01E4FF12041DD0
:10013600750800D007D006D005D004D003D002D071
:0E01460001D000D0D0D082D083D0F0D0E032F3
:030000000203DE1A
:0C03DE00787FE4F6D8FD7581320201E85A
:10015400BB010CE58229F582E5833AF583E0225060
:1001640006E92582F8E622BBFE06E92582F8E222AA
:0D017400E58229F582E5833AF583E49322C4
:10018100EF8DF0A4A8F0CF8CF0A428CE8DF0A42E92
:02019100FE224C
:10019300BC000BBE0029EF8DF084FFADF022E4CC50
:1001A300F875F008EF2FFFEE33FEEC33FCEE9DEC19
:1001B300984005FCEE9DFE0FD5F0E9E4CEFD22ED5F
:1001C300F8F5F0EE8420D21CFEADF075F008EF2FA9
:1001D300FFED33FD4007985006D5F0F222C398FD9A
:0501E3000FD5F0EA2237
:00000001FF
