:0C03D10068656C6C6F20776F726C6400C4
:1002FE0012039A7BFF7A0379D17D057F01120326C3
:10030E001200038F22E52260F7FB7A00750C027D46
:08031E00017F0212036780E871
:0603C200C2A58F80D2A746
:0803C8007F027EEFDEFEDFFC88
:0103D000220A
:0A03E900C2A61203C2C2A70203C895
:10034900CFCDCFCECCCE1201CB7C007D0A1201CB12
:04035900ED2430FF60
:0A035D00D2A61203C2C2A70203C811
:10038400AE07BE0104ED148006BE0209ED243F440D
:0603940080FF1203E922C4
:10039A007F381203E97F0C1203E97F061203E97F13
:0403AA00010203E960
:0A03F300AC03120384AF0402035DA3
:060326008B088A09890A18
:10032C00120384E4FDAB08AA09A90A8D8275830027
:0C033C0012018CFF600612035D0D80E9C9
:010348002292
:0C02CB007F0AEA24FFFDE434FFFC7E0003
:0802D7008E0D8F0E8C0F8D10AF
:1002DF007F017E00E4FBEBC39510E50F6480F8749B
:0E02EF008098500AAC0DAD0E1201B90B80E8DC
:0102FD0022DE
:040367008A0A8B0B68
:10036B00120384AA0CEAD39400400D1202CBAC0A00
:08037B00AD0B1203491A80EDDD
:010383002257
:10022000120384C3EA64809480400B7F2B12035D29
:100230008A168B17800E7F2D12035DC3E49BF51782
:10024000E49AF516AA15EAD39400400D1202CBAC3D
:0902500016AD171203491A80EDE6
:010259002282
:04025A008A1A8B1B56
:10025E00120384AA1CEAD3940040297F101202CD07
:10026E00AC1AAD1BCFCDCFCECCCE1201CBEF540FEF
:10027E00FEC3940AEE5004243080022437FF12038A
:04028E005D1A80D1A4
:010292002249
:040293008A1F8B2013
:10029700120384AA21EAD394004028EA24FFFDE44C
:1002A70034FFFC7F027E001202D7AC1FAD20CFCDFA
:1002B700CFCECCCE1201CBEF54012430FF12035D19
:0302C7001A80D2C8
:0102CA002211
:1003AE00EF4E600F7D027CEFDCFEDDFCEF1F70F088
:0303BE001E80EDB1
:0103C1002219
:10000300E4F5087590FFC2932097137F0AFE12034D
:10001300AE3097FD7F147E001203AE750801209663
:10002300147F0A7E001203AE3096FD7F147E001209
:1000330003AE7508052095147F0A7E001203AE30C7
:1000430095FD7F147E001203AE7508092094147F7A
:100053000A7E001203AE3094FD7F147E001203AEBD
:1000630075080D7590FFC2922097147F0A7E0012C7
:1000730003AE3097FD7F147E001203AE7508022095
:1000830096147F0A7E001203AE3096FD7F147E0025
:100093001203AE7508062095147F0A7E001203AE84
:1000A3003095FD7F147E001203AE75080A20941468
:1000B3007F0A7E001203AE3094FD7F147E0012038C
:1000C300AE75080E7590FFC2912097147F0A7E00CB
:1000D3001203AE3097FD7F147E001203AE75080342
:1000E3002096147F0A7E001203AE3096FD7F147EA5
:1000F300001203AE7508072095147F0A7E001203D1
:10010300AE3095FD7F147E001203AE75080B20946C
:10011300147F0A7E001203AE3094FD7F147E00121A
:1001230003AE75080F7590FFC2902097147F0A7E67
:10013300001203AE3097FD7F147E001203AE7508E4
:10014300042096147F0A7E001203AE3096FD7F14BE
:100153007E001203AE7508082095147F0A7E0012F4
:1001630003AE3095FD7F147E001203AE75080C209C
:1001730094147F0A7E001203AE3094FD7F147E0038
:080183001203AE750810AF086D
:01018B002251
:030000000203DD1B
:0C03DD00787FE4F6D8FD7581220202FE54
:10018C00BB010CE58229F582E5833AF583E0225028
:10019C0006E92582F8E622BBFE06E92582F8E22272
:0D01AC00E58229F582E5833AF583E493228C
:1001B900EF8DF0A4A8F0CF8CF0A428CE8DF0A42E5A
:0201C900FE2214
:1001CB00BC000BBE0029EF8DF084FFADF022E4CC18
:1001DB00F875F008EF2FFFEE33FEEC33FCEE9DECE1
:1001EB00984005FCEE9DFE0FD5F0E9E4CEFD22ED27
:1001FB00F8F5F0EE8420D21CFEADF075F008EF2F71
:10020B00FFED33FD4007985006D5F0F222C398FD61
:05021B000FD5F0EA22FE
:00000001FF
