:03010100010800F2
:1000ED00EF4E600F7D027CEFDCFEDDFCEF1F70F04C
:0300FD001E80ED75
:0101000022DC
:10008F0075A0FE20B12A800320B1097F147E0012D3
:10009F0000ED80F40508E508C394084003E4F50873
:1000AF00AF087401A807088002C333D8FCF4F5A089
:1000BF0020B0D0800320B0097F147E001200ED80A5
:1000CF00F4E508700575080780021508AF0874017C
:0E00DF00A807088002C333D8FCF4F5A080A562
:03000000020003F8
:0C000300787FE4F6D8FD75810802004A01
:10000F0002008FE493A3F8E493A34003F68001F278
:10001F0008DFF48029E493A3F85407240CC8C333F2
:10002F00C4540F4420C8834004F456800146F6DFC1
:10003F00E4800B0102040810204080900101E47E4F
:10004F00019360BCA3FF543F30E509541FFEE493B6
:10005F00A360010ECF54C025E060A840B8E493A37D
:10006F00FAE493A3F8E493A3C8C582C8CAC583CAA8
:10007F00F0A3C8C582C8CAC583CADFE9DEE780BE60
:0101040000FA
:00000001FF
