:0C0132000A083F065B4F666D7D077F6F7B
:10008F00EE705BEF14B4080050549000A775F003A6
:10009F00A4C58325F0C583730200BF0200C302000D
:1000AF00C70200CB0200CF0200D70200DF0200E739
:1000BF00D2A4800ED2A48012D2A48016D2A4801A09
:1000CF00C2A4D2A3D2A28016C2A4D2A3C2A2800E6F
:1000DF00C2A4C2A3D2A28006C2A4C2A3C2A27408A1
:0600EF002DF8E6F5802269
:10011E00EF4E600F7D027CEFDCFEDDFCEF1F70F01A
:03012E001E80ED43
:0101310022AB
:1000F5007D017F017E0012008F12011E7D027F02AD
:100105007E0012008F1F12011E7D037F037E0012E9
:09011500008F7F0112011E80D74A
:03000000020003F8
:0C000300787FE4F6D8FD75811102004AF8
:10000F000200F5E493A3F8E493A34003F68001F212
:10001F0008DFF48029E493A3F85407240CC8C333F2
:10002F00C4540F4420C8834004F456800146F6DFC1
:10003F00E4800B0102040810204080900132E47E1E
:10004F00019360BCA3FF543F30E509541FFEE493B6
:10005F00A360010ECF54C025E060A840B8E493A37D
:10006F00FAE493A3F8E493A3C8C582C8CAC583CAA8
:10007F00F0A3C8C582C8CAC583CADFE9DEE780BE60
:01013E0000C0
:00000001FF
