:10092100543A0054483A00544C3A004F563A480061
:0D0931004F563A4C002020202020202000AE
:10046D00120A3D7FE87E03120A06E4FF1207F98F98
:10047D000F7F011207F98F0AD3E50F648094FD50A9
:10048D0016C3E50A64809449400DD3E50A6480F8EB
:10049D00E50F6480985006750F19750A0F120A1A28
:1004AD007BFF7A0979217D017F011208A47BFF7AF8
:1004BD000979247D017F021208A47BFF7A0979282E
:1004CD007D097F021208A4E50FFB3395E0FA75193B
:1004DD00037D047F021206E2E50AFB3395E0FA750F
:1004ED0019037D0C7F021206E21209AD120A898FE3
:1004FD0010120A3D12082B8F0E8E0D8D0C8C0BE4F5
:10050D00FFFEFDFCAB0EAA0DA90CA80B1201B450F9
:10051D001E7B2D7D037F01120A76AF0EAE0DAD0C45
:10052D00AC0B12022D8F148E138D128C1180157B36
:10053D002B7D037F01120A76850E14850D13850C14
:10054D0012850B11AF14AE13AD12AC1112027CABB0
:10055D0007AA067519037D037F0112093E7B2E7DC7
:10056D00077F01120A76E4FFFE7DC87C42AB14AA18
:10057D0013A912A81112000E12027CE47B64FAF981
:10058D00F81203CD7519027D087F0112093EE510A1
:10059D00700302063AB4010E050FD3E50F64809483
:1005AD00FD4003750F7DE510B40211150FD3E50A5B
:1005BD006480F8E50F6480985002050FE510B403D0
:1005CD0011050AC3E50F6480F8E50A6480984002BE
:1005DD00150AE510B4040E150AC3E50A64809449A2
:1005ED005003750AC9E50FFB3395E0FA7519037DC4
:1005FD00047F021206E2E50AFB3395E0FA75190352
:10060D007D0C7F021206E2E50FFD3395E0FCE4FF61
:10061D001208807F057E00120A06E50AFD3395E07B
:10062D00FC7F011208807F057E00120A06AC0FECDC
:10063D00120248AB0EAA0DA90CA80B1201B4600A48
:10064D0040087BFF7A09792C8019AC0AEC1202481C
:10065D00AB0EAA0DA90CA80B1201B450107BFF7A9A
:10066D000979317D0D7F011208A40204F97BFF7A0F
:0D067D000979367D0D7F011208A40204F9F1
:03000B0002068A60
:10068A00C0E0C0F0C083C082C0D075D000C000C036
:0D069A0001C002C003C004C005C006C007B7
:1006A700758CFC758A180509E50970020508C3945D
:1006B70014E50894004009750800750900120755EC
:1006C700D007D006D005D004D003D002D001D00087
:0B06D700D0D0D082D083D0F0D0E03231
:100A0600EF4E600F7D027CEFDCFEDDFCEF1F70F029
:030A16001E80ED52
:010A190022BA
:090A8000D2A0D2A1C2A0C2A122A1
:07000300C2A0D2A1D2A0228D
:02085700AD07EB
:10085900E4FB74807E00A803088006CEA2E713CECD
:1008690013D8F8FFEDF582EF558224FF92A0D2A1AB
:06087900C2A10BBB08DC6C
:01087F002256
:1008C700E4FFD2A0FED2A130A00D7480A806088054
:0D08D70002C313D8FC4207C2A10EBE08E800
:0108E40022F1
:0A0A6200EF24FF92A0D2A1C2A1224E
:0B0A4A00D2A0D2A1A2A0E433FFC2A101
:010A5500227E
:060A2E00C2A58F80D2A7D3
:080A34007F027EEFDEFEDFFC15
:010A3C002297
:0A0A6C00C2A6120A2EC2A7020A3425
:1008E500CFCDCFCECCCE12033C7C007D0A12033C8B
:0408F500ED2430FFBF
:0A08F900D2A6120A2EC2A7020A348A
:1009C400AE07BE0104ED148006BE0209ED243F44C7
:0609D40080FF120A6C22F4
:100A1A007F38120A6C7F0C120A6C7F06120A6C7FEE
:040A2A0001020A6C4F
:0A0A7600AC031209C4AF040208F932
:0608A4008B158A1689176E
:1008AA001209C4E4FDAB15AA16A9178D8275830037
:0C08BA001202FDFF60061208F90D80E933
:0108C600220F
:0C07C6007F0AEA24FFFDE434FFFC7E0003
:0807D2008E1C8F1D8C1E8D1F73
:1007DA007F017E00E4FBEBC3951FE51E6480F8747D
:0E07EA008098500AAC1CAD1D12032A0B80E84B
:0107F80022DE
:04093E008A178B1871
:100942001209C4AA19EAD39400400D1207C6AC17C3
:08095200AD181208E51A80ED52
:01095A00227A
:1006E2001209C4C3EA64809480400B7F2B1208F97C
:1006F2008A1A8B1B800E7F2D1208F9C3E49BF51B0F
:10070200E49AF51AAA19EAD39400400D1207C6AC6E
:090712001AAD1B1208E51A80ED76
:01071B0022BB
:04071C008A228B237F
:100720001209C4AA24EAD3940040297F101207C8F2
:10073000AC22AD23CFCDCFCECCCE12033CEF540FA5
:10074000FEC3940AEE5004243080022437FF1208BE
:04075000F91A80D141
:010754002282
:04078E008A278B2803
:100792001209C4AA29EAD394004028EA24FFFDE4FE
:1007A20034FFFC7F027E001207D2AC27AD28CFCDEA
:1007B200CFCECCCE12033CEF54012430FF1208F905
:0307C2001A80D2C8
:0107C5002211
:100880008F158C168D17120A807FA0120857120A36
:100890004AAF15120857120A4AAF17120857120A20
:0408A0004A02000305
:0207F9008F155A
:1007FB00120A807FA0120857120A4AAF1512085727
:10080B00120A4A120A807FA1120857120A4A1208CA
:0F081B00C78F167F01120A62120003AF167E000C
:01082A0022AB
:10090300C2AFD2B7C2B77FF7DFFED2B77F20DFFE19
:0D091300A2B7E433FE7FF7DFFED2AFAF06E0
:0109200022B4
:1009DA00C2AFC2B77E04DEFEEF24FF92B77E18DEF6
:0509EA00FED2B7D2AF00
:0109EF0022E5
:10097800C2AFC2B77F02DFFED2B77F02DFFEA2B7E7
:0B098800E433FE7F18DFFED2AFAF06A5
:010993002241
:02099400AD07AD
:10099600E4FC7401A804088002C333D8FC5DFF128E
:0609A60009DA0CBC08ECAC
:0109AC002228
:10095B00E4FDFC120978EF600D7401A80408800215
:0C096B00C333D8FC42050CBC08E9AF0502
:01097700225D
:0D0A3D001209037FCC1209947F4402099432
:10082B001209037FCC1209947FBE12099412095B43
:10083B008F1512095BEFFEE515FFFDAC06EC1202FE
:0B084B0043E4FBFA79807841120117AA
:01085600227F
:1009AD005389F0438901758A18758CFCC28DD28CE0
:0709BD00D2A9D2AFC2B9229A
:050A8900E4AF2CF52C88
:010A8E002245
:1009F000E4FF20B1010F20B0027F0220B2027F038A
:050A000020B3027F0499
:010A050022CE
:10075500852A2B1209F08F2AE52BB40107E52A70AB
:1007650003752C01E52BB40207E52A7003752C02ED
:10077500E52BB40307E52A7003752C03E52BB404B8
:0807850007E52A7003752C043E
:01078D002249
:10000E00EC4D6011E8497017ED33EC3304600DE4EC
:10001E00FCFFFEFD22E933E8330470F80202E81219
:10002E0002B358046009E4CC24815006285009021A
:10003E0002F22840030202EFC0E0EB4A7044B9809E
:10004E0006D0E0FB0202DEEF4E701CBD8008EBFF17
:10005E00EAFEE9FD80EBE98DF0A4FEE5F00200F783
:10006E00E9CDF9EAFEEBFFEF89F0A4FCE5F0CE89CD
:10007E00F0A42EFFE435F0CD89F0A42DFEE435F08A
:10008E008067EF4E7005BD80D780C3EF8BF0A4ACB8
:10009E00F0EE8BF0A42CFCE435F0F8EF8AF0A42CF3
:1000AE00E5F038FCE433CB8DF0A42CFCE5F03BF806
:1000BE00EE8AF0A42CFCE5F038F8E433CF89F0A4F6
:1000CE002CFCE5F038CF3400CE89F0A42FFFE5F0FC
:1000DE003EFEE433C98DF0A42EFEE5F039CD8AF054
:1000EE00A42FFFE5F03EFEE43DFD33D0E0FB5007CC
:1000FE000BBB000F0202F2EC2CFCEF33FFEE33FED3
:06010E00ED33FD0202CA00
:100114000202F2EC5D046005E8590470030202E88F
:100124001202B3580460F6EC4860F2EC7004FDFE71
:10013400FF22C860DB2481C85009C39860025006BE
:100144000202EF9850CAF582E9294B4A7005AB8246
:100154000202DE75F0007C1A7880C3EF9BEE9AED04
:1001640099400DC3EF9BFFEE9AFEED99FDE842F036
:10017400DC23ACF0D0E0FFD0E0FED0E0FDAB822089
:10018400E7101BEB60BAEC2CFCEF33FFEE33FEED13
:1001940033FD0202CAE803F830E705C0F075F00049
:1001A400EF2FFFEE33FEED33FD40B830E7C280AAF7
:1001B40074F8CC6480CCC86480C8F58204604FC3F2
:1001C400EB9FF5F0EA9E42F0E99D42F0E89C45F091
:1001D400603C501DE5825FFFE582D313CB5BCBF41B
:1001E4002B5582FB50280ABA002409B90020088044
:1001F4001DE5825BFBE582D313CF5FCFF4C3132FDE
:100204005582FF50090EBE00050DBD00010CC3EB65
:100214009FF5F0EA9E42F0E99D42F0E89C45F060CB
:0902240007CC4820E701B3EC22ED
:10022D00ED33EC33600A047003BD8004ECB2E7FCDF
:01023D00229E
:10023E0075F020800E75F010800575F0087D007E3B
:10024E00007F003392D530D50312045FEC3340109B
:10025E00EF33FFEE33FEED33FDEC33FCD5F0ED2244
:0E026E00E5F0247EA2D513CC92E7CDCEFF2280
:10027C00EDD2E7CD33EC3392D524814006E4FFFE7A
:10028C00FDFC22FCE4CFCECDCC24E0501174FF80D9
:10029C00EDC3CC13CCCD13CDCE13CECF13CF047076
:0702AC00F030D5DE02045F13
:1002B300E9D2E7C933E833F892D5EDD2E7CD33EC91
:0702C30033FC5002B2D5220A
:1002CA00EC30E7100FBF000C0EBE00080DBD000495
:1002DA000BEB6014A2D5EB13FCED92E7FD2274FF41
:1002EA00FCFDFEFF22E480F8A2D574FF13FC7D809A
:0302FA00E480EFAE
:03000000020A569B
:0C0A5600787FE4F6D8FD75812C02046D59
:1002FD00BB010CE58229F582E5833AF583E02250B6
:10030D0006E92582F8E622BBFE06E92582F8E222FF
:0D031D00E58229F582E5833AF583E4932219
:10032A00EF8DF0A4A8F0CF8CF0A428CE8DF0A42EE7
:02033A00FE22A1
:10033C00BC000BBE0029EF8DF084FFADF022E4CCA5
:10034C00F875F008EF2FFFEE33FEEC33FCEE9DEC6E
:10035C00984005FCEE9DFE0FD5F0E9E4CEFD22EDB4
:10036C00F8F5F0EE8420D21CFEADF075F008EF2FFE
:10037C00FFED33FD4007985006D5F0F222C398FDEF
:05038C000FD5F0EA228C
:1003910075F008758200EF2FFFEE33FECD33CDCC23
:1003A10033CCC58233C5829BED9AEC99E5829840A6
:1003B1000CF582EE9BFEED9AFDEC99FC0FD5F0D683
:1003C100E4CEFBE4CDFAE4CCF9A88222B800C1B9AD
:1003D1000059BA002DEC8BF084CFCECDFCE5F0CBEB
:1003E100F97818EF2FFFEE33FEED33FDEC33FCEB24
:1003F10033FB10D703994004EB99FB0FD8E5E4F9DF
:10040100FA227818EF2FFFEE33FEED33FDEC33FCCB
:10041100C933C910D7059BE99A4007EC9BFCE99ABF
:10042100F90FD8E0E4C9FAE4CCFB2275F010EF2F04
:10043100FFEE33FEED33FDCC33CCC833C810D70704
:100441009BEC9AE899400AED9BFDEC9AFCE899F83F
:0E0451000FD5F0DAE4CDFBE4CCFAE4C8F922D2
:0E045F00C3E49FFFE49EFEE49DFDE49CFC22AE
:00000001FF
