:10015600E4FD7F01FE12008F1200F58F12E512609A
:10016600F77F647E00120179AD127F017E001200D6
:030176008F80E592
:10019B00EF4E600F7D027CEFDCFEDDFCEF1F70F09D
:0301AB001E80EDC6
:0101AE00222E
:1000F500E4F51320B1137F14FE12019B30B1FD7F8F
:10010500147E0012019B75130120B0147F147E002C
:1001150012019B30B0FD7F147E0012019B75130206
:1001250020B2147F147E0012019B30B2FD7F147E35
:100135000012019B75130320B3147F147E00120176
:100145009B30B3FD7F147E0012019B751304AF1322
:010155002287
:0C01AF000A083F065B4F666D7D077F6FFE
:10008F00EE705BEF14B4080050549000A775F003A6
:10009F00A4C58325F0C583730200BF0200C302000D
:1000AF00C70200CB0200CF0200D70200DF0200E739
:1000BF00D2A4800ED2A48012D2A48016D2A4801A09
:1000CF00C2A4D2A3D2A28016C2A4D2A3C2A2800E6F
:1000DF00C2A4C2A3D2A28006C2A4C2A3C2A27408A1
:0600EF002DF8E6F5802269
:0501BC00007FF7DFFEEB
:0101C100221B
:04017900AD07AC061C
:10017D00E4FBFAED25E0FFEC33FEC3EB9FEA9E5066
:0D018D000CB2A51201BC0BBB00010A80E6FC
:01019A002242
:03000000020003F8
:0C000300787FE4F6D8FD75811302004AF6
:10000F00020156E493A3F8E493A34003F68001F2B0
:10001F0008DFF48029E493A3F85407240CC8C333F2
:10002F00C4540F4420C8834004F456800146F6DFC1
:10003F00E4800B01020408102040809001AFE47EA1
:10004F00019360BCA3FF543F30E509541FFEE493B6
:10005F00A360010ECF54C025E060A840B8E493A37D
:10006F00FAE493A3F8E493A3C8C582C8CAC583CAA8
:10007F00F0A3C8C582C8CAC583CADFE9DEE780BE60
:0101BB000043
:00000001FF
