:100003000CD3FCD209181800000C0C09D2FCD30C39
:1000130000383809D2FCD30C0CD3FCD221C0C00069
:1000230000050AD7FBDC030000383809D2FCD30CE7
:10003300000BDCFBD70A050000207FF8B4020101A6
:100043000000193F7C570100000001021C3C7B5853
:100053000000193F7C5701000000193F7C57010045
:10006300201020FFFC26120800C020FFFA24C00045
:100073000000307FFEA2010000073478F8B60100CB
:10008300000001021C3C7B5800073478F8B60100DD
:10009300000001021C3C7B5800073478F8B60100CD
:0800A300000001021C3C7B5827
:1000AB00E4F509F50A12015BE4F508E5082509906A
:1000BB00000393FD7C00AF081201180508E508C387
:1000CB00940840E7050AE50AD3941E40DBE4F50AE1
:1000DB0074082509F509D394A040CDE4F50980C82F
:10013A00EF1FAC0670011E4C600A7D027CEFDCFEEC
:04014A00DDFC80EC6C
:01014E00228E
:0200EB00AD075F
:1000ED00E4FB74807E00A803088006CEA2E713CE41
:1000FD0013D8F8FFEDF582EF558224FF92B4D2B6F6
:0A010D00C2B60BBB08DCD2B5C2B5C8
:0101170022C5
:05015B00C2B6C2B5228E
:10011800AA07AF051200EBAF027480A80708800297
:10012800C313D8FCF4F5807F017E0012013A758074
:02013800FF22A4
:0300000002014FAB
:0C014F00787FE4F6D8FD75810A0200AB51
:00000001FF
