:0606AF00C2A58F80D2A756
:0806B5007F027EEFDEFEDFFC98
:0106BD00221A
:0A06CA00C2A61206AFC2A70206B5D1
:10061800CFCDCFCECCCE1204C27C007D0A1204C24C
:04062800ED2430FF8E
:0A062C00D2A61206AFC2A70206B55F
:10067100AE07BE0104ED148006BE0209ED243F441D
:0606810080FF1206CA22F0
:100687007F381206CA7F0C1206CA7F061206CA7F77
:04069700010206CA8C
:0A06D400AC03120671AF0402062CFD
:0605F5008B148A15891623
:1005FB00120671E4FDAB14AA15A9168D8275830042
:0C060B00120483FF600612062C0D80E92B
:0106170022C0
:0C05C2007F0AEA24FFFDE434FFFC7E0009
:0805CE008E198F1A8C1B8D1C85
:1005D6007F017E00E4FBEBC3951CE51B6480F87489
:0E05E6008098500AAC19AD1A1204B00B80E8D0
:0105F40022E4
:040654008A168B1760
:10065800120671AA18EAD39400400D1205C2AC160E
:08066800AD171206181A80ED0F
:010670002267
:10051700120671C3EA64809480400B7F2B12062C6D
:100527008A228B23800E7F2D12062CC3E49BF52392
:10053700E49AF522AA21EAD39400400D1205C2AC31
:0905470022AD231206181A80ED02
:010550002288
:040551008A268B2744
:10055500120671AA28EAD3940040297F101205C417
:10056500AC26AD27CFCDCFCECCCE1204C2EF540FE3
:10057500FEC3940AEE5004243080022437FF12068D
:040585002C1A80D1DB
:01058900224F
:04058A008A2B8B2C01
:10058E00120671AA2DEAD394004028EA24FFFDE456
:10059E0034FFFC7F027E001205CEAC2BAD2CCFCDEE
:1005AE00CFCECCCE1204C2EF54012430FF12062C53
:0305BE001A80D2CE
:0105C1002217
:10069B00EF4E600F7D027CEFDCFEDDFCEF1F70F098
:0306AB001E80EDC1
:0106AE002229
:10000300E4F5147590FFC2932097137F0AFE12063E
:100013009B3097FD7F147E0012069B75140120967A
:10002300147F0A7E0012069B3096FD7F147E001219
:10003300069B7514052095147F0A7E0012069B30DB
:1000430095FD7F147E0012069B7514092094147F7E
:100053000A7E0012069B3094FD7F147E0012069BDD
:1000630075140D7590FFC2922097147F0A7E0012BB
:10007300069B3097FD7F147E0012069B75140220A9
:1000830096147F0A7E0012069B3096FD7F147E0035
:1000930012069B7514062095147F0A7E0012069B98
:1000A3003095FD7F147E0012069B75140A2094146C
:1000B3007F0A7E0012069B3094FD7F147E00120699
:1000C3009B75140E7590FFC2912097147F0A7E00D2
:1000D30012069B3097FD7F147E0012069B75140356
:1000E3002096147F0A7E0012069B3096FD7F147EB5
:1000F3000012069B7514072095147F0A7E001206D2
:100103009B3095FD7F147E0012069B75140B209483
:10011300147F0A7E0012069B3094FD7F147E00122A
:10012300069B75140F7590FFC2902097147F0A7E6B
:100133000012069B3097FD7F147E0012069B7514F8
:10014300042096147F0A7E0012069B3096FD7F14CE
:100153007E0012069B7514082095147F0A7E0012F8
:10016300069B3095FD7F147E0012069B75140C20B0
:1001730094147F0A7E0012069B3094FD7F147E0048
:0801830012069B751410AF1465
:01018B002251
:1006360050617373776F72645365743A00506173D7
:0E06460073776F72643A004F4B2000455200EC
:100315001206871200038F13E513B40D0F7BFF7AC6
:100325000679367D017F011205F58052E513604E91
:10033500D3940A5049C3E5109404E50F940050285E
:10034500AE09AF0A7C007D0A1204B08E098F0AE55A
:100355001375F00A84E5F0250AF50AE43509F5096F
:100365000510E5107002050F050EE50E7002050D6E
:10037500751804AB0AAA097D0D7F01120654E51311
:10038500B40E0F7BFF7A0679437D017F021205F5D6
:100395008055D3E50E9404E50D9400404AE51360BD
:1003A50046D3940A5041C3E50C9404E50B940050E0
:1003B50028AE11AF127C007D0A1204B08E118F1287
:1003C500E51375F00A84E5F02512F512E43511F50B
:1003D50011050CE50C7002050B751804AB12AA117A
:1003E5007D0A7F02120654E513640B6003020318AD
:1003F500E512B50A2CE511B509277BFF7A06794D7B
:100405007D0F7F021205F5E4F511F512F50BF50CDC
:10041500751804AB12AA117D0A7F02120654020355
:10042500187BFF7A0679517D0F7F021205F5E50BE2
:100435007031E50C24FE601814601724027024AE98
:1004450011AF12AC11AD121204C28C118D128018AD
:100455008000AE11AF127C007D0A1204C28E118F8E
:10046500128005E4F511F512E4F50BF50C75180489
:0E047500AB12AA117D0A7F0212065402031870
:10018C00E4F52E7590FFC2932097137F0AFE12069A
:10019C009B3097FD7F147E0012069B752E012096D6
:1001AC00147F0A7E0012069B3096FD7F147E00128F
:1001BC00069B752E052095147F0A7E0012069B3037
:1001CC0095FD7F147E0012069B752E092094147FDA
:1001DC000A7E0012069B3094FD7F147E0012069B53
:1001EC00752E0D7590FFC2922097147F0A7E001217
:1001FC00069B3097FD7F147E0012069B752E022005
:10020C0096147F0A7E0012069B3096FD7F147E00AA
:10021C0012069B752E062095147F0A7E0012069BF3
:10022C003095FD7F147E0012069B752E0A209414C7
:10023C007F0A7E0012069B3094FD7F147E0012060E
:10024C009B752E0E7590FFC2912097147F0A7E002D
:10025C0012069B3097FD7F147E0012069B752E03B1
:10026C002096147F0A7E0012069B3096FD7F147E2A
:10027C000012069B752E072095147F0A7E0012062D
:10028C009B3095FD7F147E0012069B752E0B2094DF
:10029C00147F0A7E0012069B3094FD7F147E0012A0
:1002AC00069B752E0F7590FFC2902097147F0A7EC7
:1002BC000012069B3097FD7F147E0012069B752E54
:1002CC00042096147F0A7E0012069B3096FD7F1444
:1002DC007E0012069B752E082095147F0A7E001254
:1002EC00069B3095FD7F147E0012069B752E0C200C
:1002FC0094147F0A7E0012069B3094FD7F147E00BE
:08030C0012069B752E10AF2EA6
:0103140022C6
:030000000206BE37
:0C06BE00787FE4F6D8FD75812E0203154C
:10048300BB010CE58229F582E5833AF583E022502E
:1004930006E92582F8E622BBFE06E92582F8E22278
:0D04A300E58229F582E5833AF583E4932292
:1004B000EF8DF0A4A8F0CF8CF0A428CE8DF0A42E60
:0204C000FE221A
:1004C200BC000BBE0029EF8DF084FFADF022E4CC1E
:1004D200F875F008EF2FFFEE33FEEC33FCEE9DECE7
:1004E200984005FCEE9DFE0FD5F0E9E4CEFD22ED2D
:1004F200F8F5F0EE8420D21CFEADF075F008EF2F77
:10050200FFED33FD4007985006D5F0F222C398FD67
:050512000FD5F0EA2204
:00000001FF
