:1002F7001203477FC07E121202AAD2AFE525FB7A0E
:0D03070000750C027D017F0112020680EFDF
:0300230002038A4B
:09038A00309805C29885992532CE
:06035B00C2A58F80D2A7AD
:080361007F027EEFDEFEDFFCEF
:010369002271
:0A037600C2A612035BC2A7020361D6
:10000300CFCDCFCECCCE1200657C007D0A12006529
:04001300ED2430FFA9
:0A001700D2A612035BC2A702036128
:10033100AE07BE0104ED148006BE0209ED243F4460
:0603410080FF120376228A
:100347007F381203767F0C1203767F061203767FBF
:040357000102037626
:0A038000AC03120331AF04020017B2
:0602D4008B228A2389241D
:1002DA00120331E4FDAB22AA23A9248D827583007F
:0C02EA00120026FF60061200170D80E9CC
:0102F60022E5
:0C0277007F0AEA24FFFDE434FFFC7E0057
:080283008E0D8F0E8C0F8D1003
:10028B007F017E00E4FBEBC39510E50F6480F874EF
:0E029B008098500AAC0DAD0E1200530B80E897
:0102A9002232
:040314008A1A8B1B9B
:10031800120331AA1CEAD39400400D120277AC1ADA
:08032800AD1B1200031A80ED69
:0103300022AA
:1001CC00120331C3EA64809480400B7F2B1200171A
:1001DC008A168B17800E7F2D120017C3E49BF51720
:1001EC00E49AF516AA15EAD39400400D120277ACE6
:0901FC0016AD171200031A80ED84
:0102050022D6
:040206008A0A8B0BCA
:10020A00120331AA0CEAD3940040297F1012027912
:10021A00AC0AAD0BCFCDCFCECCCE120065EF540FCA
:10022A00FEC3940AEE5004243080022437FF1200E1
:04023A00171A80D13E
:01023E00229D
:04023F008A1F8B2067
:10024300120331AA21EAD394004028EA24FFFDE4F3
:1002530034FFFC7F027E00120283AC1FAD20CFCDA2
:10026300CFCECCCE120065EF54012430FF1200171D
:030273001A80D21C
:010276002265
:1002AA00E589540F4420F589AB07AA06E4F9F87FDB
:1002BA00807E70FDFC120188EFF404F58D858D8B2C
:0A02CA00D28EC2AB759850D2AC2260
:080393008F993099FDC29922F7
:0300000002036A8E
:0C036A00787FE4F6D8FD7581250202F7CB
:10002600BB010CE58229F582E5833AF583E022508F
:1000360006E92582F8E622BBFE06E92582F8E222D9
:0D004600E58229F582E5833AF583E49322F3
:10005300EF8DF0A4A8F0CF8CF0A428CE8DF0A42EC1
:02006300FE227B
:10006500BC000BBE0029EF8DF084FFADF022E4CC7F
:10007500F875F008EF2FFFEE33FEEC33FCEE9DEC48
:10008500984005FCEE9DFE0FD5F0E9E4CEFD22ED8E
:10009500F8F5F0EE8420D21CFEADF075F008EF2FD8
:1000A500FFED33FD4007985006D5F0F222C398FDC9
:0500B5000FD5F0EA2266
:10018800C2D5E830E70FB2D5E4C39BFBE49AFAE4A2
:1001980099F9E498F8EC30E717B2D51201BE1200CD
:1001A800F6E4C39BFBE49AFAE499F9E498F880032F
:1001B8001200F630D50DE4C39FFFE49EFEE49DFDDA
:0401C800E49CFC2295
:1000BA0075F008758200EF2FFFEE33FECD33CDCCFD
:1000CA0033CCC58233C5829BED9AEC99E582984080
:1000DA000CF582EE9BFEED9AFDEC99FC0FD5F0D65D
:1000EA00E4CEFBE4CDFAE4CCF9A88222B800C1B987
:1000FA000059BA002DEC8BF084CFCECDFCE5F0CBC5
:10010A00F97818EF2FFFEE33FEED33FDEC33FCEBFD
:10011A0033FB10D703994004EB99FB0FD8E5E4F9B8
:10012A00FA227818EF2FFFEE33FEED33FDEC33FCA5
:10013A00C933C910D7059BE99A4007EC9BFCE99A99
:10014A00F90FD8E0E4C9FAE4CCFB2275F010EF2FDE
:10015A00FFEE33FEED33FDCC33CCC833C810D707DE
:10016A009BEC9AE899400AED9BFDEC9AFCE899F819
:0E017A000FD5F0DAE4CDFBE4CCFAE4C8F922AC
:00000001FF
