:0701CF00C181C1000108001D
:0C01C300758901D288D2AFD2A8D20122E7
:06015C008B0E8A0F8910D2
:10016200438920759850E4F587758DFD758BFDD216
:100172008EC2AFFFEFC39D5018AB0EAA0FA9108F0E
:1001820082758300120196F5993099FDC2990F800C
:03019200E3D2AF06
:010195002247
:03000300020006F2
:10000600C0E0C083C082C0D075D000C000C001C0AF
:0900160002C003C005C006C007CA
:10001F00C28CE58AD394C84002058C858C09758AF9
:10002F0000758C00D28CE509B4910E30010B7B006A
:10003F007A00790A7D0412015C20010B7B007A00A3
:10004F0079097D0112015CE509D39402400BE509A2
:10005F0094055005750900802AE509D39404400BD7
:10006F00E509940950057509018018C2007508004B
:10007F00E509643070347F04780AE4F608DFFCD2B7
:10008F00008027300024E508C39420501BE5081397
:10009F001313541FFF240AF8C000E625E0D000F622
:0A00AF00740A2FF8E64509F605086B
:1000B900D007D006D005D003D002D001D000D0D0CF
:0700C900D082D083D0E032A9
:0501D7001201C380FECF
:030000000200D02B
:0C00D000787FE4F6D8FD7581200201174E
:10019600BB010CE58229F582E5833AF583E022501E
:1001A60006E92582F8E622BBFE06E92582F8E22268
:0D01B600E58229F582E5833AF583E4932282
:1000DC000201D7E493A3F8E493A34003F68001F262
:1000EC0008DFF48029E493A3F85407240CC8C33325
:1000FC00C4540F4420C8834004F456800146F6DFF4
:10010C00E4800B01020408102040809001CFE47EB3
:10011C00019360BCA3FF543F30E509541FFEE493E8
:10012C00A360010ECF54C025E060A840B8E493A3AF
:10013C00FAE493A3F8E493A3C8C582C8CAC583CADA
:10014C00F0A3C8C582C8CAC583CADFE9DEE780BE92
:0101D6000028
:00000001FF
