:10016B001201D775130512010A8F12E51264017083
:10017B00280515E515B40403E4F515E5157002F52E
:10018B0013E515B40103751332E515B402037513AA
:10019B004BE515B40303751364AD157F017E001297
:0401AB00009A80C274
:03000B000201AF40
:1001AF00C0E0C0D0758CFF758A9C0514E514D394FC
:1001BF00644003751400E514C395135004D2908066
:0801CF0002C290D0D0D0E03252
:1001D7005389F0438901758A9C758CFFC28DD28C37
:0701E700D2A9D2AFC2B92278
:0C0202000A083F065B4F666D7D077F6FAA
:10009A00EE705BEF14B4080050549000B275F00390
:1000AA00A4C58325F0C583730200CA0200CE0200EC
:1000BA00D20200D60200DA0200E20200EA0200F2EC
:1000CA00D2A4800ED2A48012D2A48016D2A4801AFE
:1000DA00C2A4D2A3D2A28016C2A4D2A3C2A2800E64
:1000EA00C2A4C2A3D2A28006C2A4C2A3C2A2740896
:1000FA002DF8E6F5807F017E001201EEE4F58022FC
:10010A00E4F51620B1137F14FE1201EE30B1FD7F23
:10011A00147E001201EE75160120B0147F147E00C1
:10012A001201EE30B0FD7F147E001201EE75160248
:10013A0020B2147F147E001201EE30B2FD7F147ECD
:10014A00001201EE75160320B3147F147E0012010B
:10015A00EE30B3FD7F147E001201EE751604AF1661
:01016A002272
:1001EE00EF4E600F7D027CEFDCFEDDFCEF1F70F04A
:0301FE001E80ED73
:0102010022DA
:0300000002000EED
:0C000E00787FE4F6D8FD758116020055DD
:10001A0002016BE493A3F8E493A34003F68001F290
:10002A0008DFF48029E493A3F85407240CC8C333E7
:10003A00C4540F4420C8834004F456800146F6DFB6
:10004A00E4800B0102040810204080900202E47E42
:10005A00019360BCA3FF543F30E509541FFEE493AB
:10006A00A360010ECF54C025E060A840B8E493A372
:10007A00FAE493A3F8E493A3C8C582C8CAC583CA9D
:10008A00F0A3C8C582C8CAC583CADFE9DEE780BE55
:01020E0000EF
:00000001FF
