:1003AF005772697465204F4B002020202020202099
:0B03BF00200052656164204F4B2000BD
:100003001203E0750C05AB23AA227D017F011203C5
:10001300921201758F24E524B401150523E523709D
:10002300020522750C05FBAA227D017F01120392B2
:10003300E524B40216E523152370021522750C0579
:10004300AB23AA227D017F01120392E5246403708E
:1000530040FCAD23FF12030F7F057E001203F4E57E
:1000630022FD7C007F0112030F7F057E001203F443
:100073007BFF7A0379AF7D017F021203337FE87E32
:10008300031203F47BFF7A0379B87D017F02120325
:1000930033E52464046003020014FF1202B48E22C9
:1000A3008F237F011202B4EFFEEE4222750C05ABE3
:1000B30023AA227D017F011203927BFF7A0379C178
:1000C3007D017F021203337FE87E031203F47BFF7B
:0E00D3007A0379B87D017F0212033302001414
:06040800C2A58F80D2A7FF
:08040E007F027EEFDEFEDFFC41
:0104160022C3
:0A042F00C2A6120408C2A702040EC0
:10035600CFCDCFCECCCE1201207C007D0A1201205B
:04036600ED2430FF53
:0A036A00D2A6120408C2A702040E76
:1003CA00AE07BE0104ED148006BE0209ED243F44C7
:0603DA0080FF12042F2237
:1003E0007F3812042F7F0C12042F7F0612042F7FF8
:0403F0000102042FD3
:0A043900AC031203CAAF0402036A09
:060333008B088A09890A0B
:100339001203CAE4FDAB08AA09A90A8D82758300D4
:0C0349001200E1FF600612036A0D80E95B
:010355002285
:0C0281007F0AEA24FFFDE434FFFC7E004D
:08028D008E0D8F0E8C0F8D10F9
:100295007F017E00E4FBEBC39510E50F6480F874E5
:0E02A5008098500AAC0DAD0E12010E0B80E8D1
:0102B3002228
:040392008A0A8B0B3D
:100396001203CAAA0CEAD39400400D120281AC0AD9
:0803A600AD0B1203561A80EDA5
:0103AE00222C
:1001D6001203CAC3EA64809480400B7F2B12036A21
:1001E6008A168B17800E7F2D12036AC3E49BF517C0
:1001F600E49AF516AA15EAD39400400D120281ACD2
:0902060016AD171203561A80ED23
:01020F0022CC
:040210008A1A8B1BA0
:100214001203CAAA1CEAD3940040297F1012028355
:10022400AC1AAD1BCFCDCFCECCCE120120EF540FE4
:10023400FEC3940AEE5004243080022437FF1203D4
:040244006A1A80D1E1
:010248002293
:040249008A1F8B205D
:10024D001203CAAA21EAD394004028EA24FFFDE450
:10025D0034FFFC7F027E0012028DAC1FAD20CFCD8E
:10026D00CFCECCCE120120EF54012430FF12036A01
:03027D001A80D212
:01028000225B
:1003F400EF4E600F7D027CEFDCFEDDFCEF1F70F042
:030404001E80ED6A
:0104070022D2
:10017500E4F50820B1137F14FE1203F430B1FD7FBE
:10018500147E001203F475080120B0147F147E005C
:100195001203F430B0FD7F147E001203F4750802DB
:1001A50020B2147F147E001203F430B2FD7F147E5A
:1001B500001203F475080320B3147F147E001203A4
:1001C500F430B3FD7F147E001203F4750804AF0804
:0101D5002207
:10030F008F088C098D0A12044D7FA01202E6120489
:10031F0017AF081202E6120417AF0A1202E6120410
:04032F001702045657
:0202B4008F08B1
:1002B60012044D7FA01202E6120417AF081202E6DE
:1002C60012041712044D7FA11202E612041712033C
:0F02D600748F097F01120443120456AF097E0092
:0102E50022F6
:09044D00D2A0D2A1C2A0C2A122DA
:07045600C2A0D2A1D2A02236
:0202E600AD0762
:1002E800E4FB74807E00A803088006CEA2E713CE44
:1002F80013D8F8FFEDF582EF558224FF92A0D2A122
:06030800C2A10BBB08DCE2
:01030E0022CC
:10037400E4FFD2A0FED2A130A00D7480A8060880AC
:0D03840002C313D8FC4207C2A10EBE08E858
:010391002249
:0A044300EF24FF92A0D2A1C2A12273
:0B041700D2A0D2A1A2A0E433FFC2A13A
:0104220022B7
:03000000020423D4
:0C042300787FE4F6D8FD75812402000308
:1000E100BB010CE58229F582E5833AF583E02250D4
:1000F10006E92582F8E622BBFE06E92582F8E2221E
:0D010100E58229F582E5833AF583E4932237
:10010E00EF8DF0A4A8F0CF8CF0A428CE8DF0A42E05
:02011E00FE22BF
:10012000BC000BBE0029EF8DF084FFADF022E4CCC3
:10013000F875F008EF2FFFEE33FEEC33FCEE9DEC8C
:10014000984005FCEE9DFE0FD5F0E9E4CEFD22EDD2
:10015000F8F5F0EE8420D21CFEADF075F008EF2F1C
:10016000FFED33FD4007985006D5F0F222C398FD0D
:050170000FD5F0EA22AA
:00000001FF
